{
  "address": "0x024ED00E3d18ebb0D6bccFe850d22171e99D1Dad",
  "abi": [
    {
      "inputs": [
        {
          "internalType": "uint256",
          "name": "_swapGasEstimate",
          "type": "uint256"
        }
      ],
      "stateMutability": "nonpayable",
      "type": "constructor"
    },
    {
      "anonymous": false,
      "inputs": [
        {
          "indexed": true,
          "internalType": "address",
          "name": "_asset",
          "type": "address"
        },
        {
          "indexed": false,
          "internalType": "uint256",
          "name": "amount",
          "type": "uint256"
        }
      ],
      "name": "Recovered",
      "type": "event"
    },
    {
      "anonymous": false,
      "inputs": [
        {
          "indexed": true,
          "internalType": "bytes32",
          "name": "role",
          "type": "bytes32"
        },
        {
          "indexed": true,
          "internalType": "bytes32",
          "name": "previousAdminRole",
          "type": "bytes32"
        },
        {
          "indexed": true,
          "internalType": "bytes32",
          "name": "newAdminRole",
          "type": "bytes32"
        }
      ],
      "name": "RoleAdminChanged",
      "type": "event"
    },
    {
      "anonymous": false,
      "inputs": [
        {
          "indexed": true,
          "internalType": "bytes32",
          "name": "role",
          "type": "bytes32"
        },
        {
          "indexed": true,
          "internalType": "address",
          "name": "account",
          "type": "address"
        },
        {
          "indexed": true,
          "internalType": "address",
          "name": "sender",
          "type": "address"
        }
      ],
      "name": "RoleGranted",
      "type": "event"
    },
    {
      "anonymous": false,
      "inputs": [
        {
          "indexed": true,
          "internalType": "bytes32",
          "name": "role",
          "type": "bytes32"
        },
        {
          "indexed": true,
          "internalType": "address",
          "name": "account",
          "type": "address"
        },
        {
          "indexed": true,
          "internalType": "address",
          "name": "sender",
          "type": "address"
        }
      ],
      "name": "RoleRevoked",
      "type": "event"
    },
    {
      "anonymous": false,
      "inputs": [
        {
          "indexed": true,
          "internalType": "address",
          "name": "_adapter",
          "type": "address"
        },
        {
          "indexed": false,
          "internalType": "uint256",
          "name": "_newEstimate",
          "type": "uint256"
        }
      ],
      "name": "UpdatedGasEstimate",
      "type": "event"
    },
    {
      "anonymous": false,
      "inputs": [
        {
          "indexed": true,
          "internalType": "address",
          "name": "_tokenFrom",
          "type": "address"
        },
        {
          "indexed": true,
          "internalType": "address",
          "name": "_tokenTo",
          "type": "address"
        },
        {
          "indexed": false,
          "internalType": "uint256",
          "name": "_amountIn",
          "type": "uint256"
        },
        {
          "indexed": false,
          "internalType": "uint256",
          "name": "_amountOut",
          "type": "uint256"
        }
      ],
      "name": "YakAdapterSwap",
      "type": "event"
    },
    {
      "inputs": [],
      "name": "DEFAULT_ADMIN_ROLE",
      "outputs": [
        {
          "internalType": "bytes32",
          "name": "",
          "type": "bytes32"
        }
      ],
      "stateMutability": "view",
      "type": "function"
    },
    {
      "inputs": [],
      "name": "MAINTAINER_ROLE",
      "outputs": [
        {
          "internalType": "bytes32",
          "name": "",
          "type": "bytes32"
        }
      ],
      "stateMutability": "view",
      "type": "function"
    },
    {
      "inputs": [
        {
          "internalType": "address",
          "name": "addedMaintainer",
          "type": "address"
        }
      ],
      "name": "addMaintainer",
      "outputs": [],
      "stateMutability": "nonpayable",
      "type": "function"
    },
    {
      "inputs": [
        {
          "internalType": "address",
          "name": "_pool",
          "type": "address"
        }
      ],
      "name": "addPool",
      "outputs": [],
      "stateMutability": "nonpayable",
      "type": "function"
    },
    {
      "inputs": [
        {
          "internalType": "bytes32",
          "name": "role",
          "type": "bytes32"
        }
      ],
      "name": "getRoleAdmin",
      "outputs": [
        {
          "internalType": "bytes32",
          "name": "",
          "type": "bytes32"
        }
      ],
      "stateMutability": "view",
      "type": "function"
    },
    {
      "inputs": [
        {
          "internalType": "bytes32",
          "name": "role",
          "type": "bytes32"
        },
        {
          "internalType": "address",
          "name": "account",
          "type": "address"
        }
      ],
      "name": "grantRole",
      "outputs": [],
      "stateMutability": "nonpayable",
      "type": "function"
    },
    {
      "inputs": [
        {
          "internalType": "bytes32",
          "name": "role",
          "type": "bytes32"
        },
        {
          "internalType": "address",
          "name": "account",
          "type": "address"
        }
      ],
      "name": "hasRole",
      "outputs": [
        {
          "internalType": "bool",
          "name": "",
          "type": "bool"
        }
      ],
      "stateMutability": "view",
      "type": "function"
    },
    {
      "inputs": [],
      "name": "name",
      "outputs": [
        {
          "internalType": "string",
          "name": "",
          "type": "string"
        }
      ],
      "stateMutability": "view",
      "type": "function"
    },
    {
      "inputs": [
        {
          "internalType": "address",
          "name": "",
          "type": "address"
        }
      ],
      "name": "poolToConvertRate",
      "outputs": [
        {
          "internalType": "uint256",
          "name": "",
          "type": "uint256"
        }
      ],
      "stateMutability": "view",
      "type": "function"
    },
    {
      "inputs": [
        {
          "internalType": "uint256",
          "name": "_amountIn",
          "type": "uint256"
        },
        {
          "internalType": "address",
          "name": "_tokenIn",
          "type": "address"
        },
        {
          "internalType": "address",
          "name": "_tokenOut",
          "type": "address"
        }
      ],
      "name": "query",
      "outputs": [
        {
          "internalType": "uint256",
          "name": "",
          "type": "uint256"
        }
      ],
      "stateMutability": "view",
      "type": "function"
    },
    {
      "inputs": [
        {
          "internalType": "uint256",
          "name": "_amount",
          "type": "uint256"
        }
      ],
      "name": "recoverAVAX",
      "outputs": [],
      "stateMutability": "nonpayable",
      "type": "function"
    },
    {
      "inputs": [
        {
          "internalType": "address",
          "name": "_tokenAddress",
          "type": "address"
        },
        {
          "internalType": "uint256",
          "name": "_tokenAmount",
          "type": "uint256"
        }
      ],
      "name": "recoverERC20",
      "outputs": [],
      "stateMutability": "nonpayable",
      "type": "function"
    },
    {
      "inputs": [
        {
          "internalType": "address",
          "name": "removedMaintainer",
          "type": "address"
        }
      ],
      "name": "removeMaintainer",
      "outputs": [],
      "stateMutability": "nonpayable",
      "type": "function"
    },
    {
      "inputs": [
        {
          "internalType": "address",
          "name": "_pool",
          "type": "address"
        }
      ],
      "name": "removePool",
      "outputs": [],
      "stateMutability": "nonpayable",
      "type": "function"
    },
    {
      "inputs": [
        {
          "internalType": "bytes32",
          "name": "role",
          "type": "bytes32"
        },
        {
          "internalType": "address",
          "name": "account",
          "type": "address"
        }
      ],
      "name": "renounceRole",
      "outputs": [],
      "stateMutability": "nonpayable",
      "type": "function"
    },
    {
      "inputs": [
        {
          "internalType": "bytes32",
          "name": "role",
          "type": "bytes32"
        }
      ],
      "name": "renounceRole",
      "outputs": [],
      "stateMutability": "nonpayable",
      "type": "function"
    },
    {
      "inputs": [
        {
          "internalType": "address",
          "name": "_token",
          "type": "address"
        },
        {
          "internalType": "address",
          "name": "_spender",
          "type": "address"
        }
      ],
      "name": "revokeAllowance",
      "outputs": [],
      "stateMutability": "nonpayable",
      "type": "function"
    },
    {
      "inputs": [
        {
          "internalType": "bytes32",
          "name": "role",
          "type": "bytes32"
        },
        {
          "internalType": "address",
          "name": "account",
          "type": "address"
        }
      ],
      "name": "revokeRole",
      "outputs": [],
      "stateMutability": "nonpayable",
      "type": "function"
    },
    {
      "inputs": [
        {
          "internalType": "uint256",
          "name": "_estimate",
          "type": "uint256"
        }
      ],
      "name": "setSwapGasEstimate",
      "outputs": [],
      "stateMutability": "nonpayable",
      "type": "function"
    },
    {
      "inputs": [
        {
          "internalType": "bytes4",
          "name": "interfaceId",
          "type": "bytes4"
        }
      ],
      "name": "supportsInterface",
      "outputs": [
        {
          "internalType": "bool",
          "name": "",
          "type": "bool"
        }
      ],
      "stateMutability": "view",
      "type": "function"
    },
    {
      "inputs": [
        {
          "internalType": "uint256",
          "name": "_amountIn",
          "type": "uint256"
        },
        {
          "internalType": "uint256",
          "name": "_amountOut",
          "type": "uint256"
        },
        {
          "internalType": "address",
          "name": "_fromToken",
          "type": "address"
        },
        {
          "internalType": "address",
          "name": "_toToken",
          "type": "address"
        },
        {
          "internalType": "address",
          "name": "_to",
          "type": "address"
        }
      ],
      "name": "swap",
      "outputs": [],
      "stateMutability": "nonpayable",
      "type": "function"
    },
    {
      "inputs": [],
      "name": "swapGasEstimate",
      "outputs": [
        {
          "internalType": "uint256",
          "name": "",
          "type": "uint256"
        }
      ],
      "stateMutability": "view",
      "type": "function"
    },
    {
      "inputs": [
        {
          "internalType": "address",
          "name": "",
          "type": "address"
        },
        {
          "internalType": "address",
          "name": "",
          "type": "address"
        }
      ],
      "name": "tokensToPool",
      "outputs": [
        {
          "internalType": "address",
          "name": "",
          "type": "address"
        }
      ],
      "stateMutability": "view",
      "type": "function"
    },
    {
      "inputs": [
        {
          "internalType": "address",
          "name": "newOwner",
          "type": "address"
        }
      ],
      "name": "transferOwnership",
      "outputs": [],
      "stateMutability": "nonpayable",
      "type": "function"
    },
    {
      "stateMutability": "payable",
      "type": "receive"
    }
  ],
  "transactionHash": "0xa346ebcc06f5800e0c2f0790863f4f2c271425ac808535408e5a7329398baf1e",
  "args": [
    150000
  ],
  "solcInputHash": "12db53c87c135c85d5c9a08a5cb3ed0a",
  "bytecode": "0x60806040523480156200001157600080fd5b506040516200274438038062002744833981016040819052620000349162000392565b60408051808201909152600f81526e29ba30b933b0ba32a0b230b83a32b960891b6020820152813362000069600082620000b5565b620000957f339759585899103d2ace64958e37e18ccb0504652c81d4a1b8aa80fe2126ab9582620000b5565b50620000a182620000c5565b620000ac816200012e565b505050620003e8565b620000c182826200024c565b5050565b8051620001195760405162461bcd60e51b815260206004820152601460248201527f496e76616c69642061646170746572206e616d6500000000000000000000000060448201526064015b60405180910390fd5b8051620000c1906002906020840190620002ec565b3360008181527fa54247010af6b3693b80aceddfad12e077c5de3571e6243fada502635f0d7d39602052604090205460ff16620001bf5760405162461bcd60e51b815260206004820152602860248201527f4d61696e7461696e61626c653a2043616c6c6572206973206e6f742061206d6160448201526734b73a30b4b732b960c11b606482015260840162000110565b816200020e5760405162461bcd60e51b815260206004820152601460248201527f496e76616c6964206761732d657374696d617465000000000000000000000000604482015260640162000110565b600182905560405182815230907ff43f23b7a28e6f8ce6843a21bd7b48bce778aa913b8c8cf459edf7d770e8d38a9060200160405180910390a25050565b6000828152602081815260408083206001600160a01b038516845290915290205460ff16620000c1576000828152602081815260408083206001600160a01b03851684529091529020805460ff19166001179055620002a83390565b6001600160a01b0316816001600160a01b0316837f2f8788117e7eff1d82e926ec794901d17c78024a50270940304540a733656f0d60405160405180910390a45050565b828054620002fa90620003ab565b90600052602060002090601f0160209004810192826200031e576000855562000369565b82601f106200033957805160ff191683800117855562000369565b8280016001018555821562000369579182015b82811115620003695782518255916020019190600101906200034c565b50620003779291506200037b565b5090565b5b808211156200037757600081556001016200037c565b600060208284031215620003a4578081fd5b5051919050565b600181811c90821680620003c057607f821691505b60208210811415620003e257634e487b7160e01b600052602260045260246000fd5b50919050565b61234c80620003f86000396000f3fe60806040526004361061018f5760003560e01c80638980f11f116100d6578063d8baf7cf1161007f578063ef99893a11610059578063ef99893a146104c7578063f2fde38b146104e7578063f87422541461050757600080fd5b8063d8baf7cf14610467578063d914cd4b14610487578063eab90da6146104a757600080fd5b8063938fa628116100b0578063938fa628146103d9578063a217fddf14610432578063d547741f1461044757600080fd5b80638980f11f146103555780638bb9c5bf1461037557806391d148541461039557600080fd5b80634ebb7916116101385780636b453c1f116101125780636b453c1f146102f55780637ae267731461031557806384a33e631461033557600080fd5b80634ebb79161461029257806351ae7e48146102b257806369cff80d146102df57600080fd5b80632f2ff15d116101695780632f2ff15d1461023057806336568abe146102525780633b7d09461461027257600080fd5b806301ffc9a71461019b57806306fdde03146101d0578063248a9ca3146101f257600080fd5b3661019657005b600080fd5b3480156101a757600080fd5b506101bb6101b6366004611f3e565b61053b565b60405190151581526020015b60405180910390f35b3480156101dc57600080fd5b506101e56105a4565b6040516101c791906120db565b3480156101fe57600080fd5b5061022261020d366004611f02565b60009081526020819052604090206001015490565b6040519081526020016101c7565b34801561023c57600080fd5b5061025061024b366004611f1a565b610632565b005b34801561025e57600080fd5b5061025061026d366004611f1a565b61065c565b34801561027e57600080fd5b5061025061028d366004611e47565b6106ed565b34801561029e57600080fd5b506102506102ad366004611f02565b6109ce565b3480156102be57600080fd5b506102226102cd366004611e47565b60046020526000908152604090205481565b3480156102eb57600080fd5b5061022260015481565b34801561030157600080fd5b50610250610310366004611e47565b610b16565b34801561032157600080fd5b50610250610330366004611e7f565b610b43565b34801561034157600080fd5b50610250610350366004611f02565b610be7565b34801561036157600080fd5b50610250610370366004611eb7565b610cfa565b34801561038157600080fd5b50610250610390366004611f02565b610e35565b3480156103a157600080fd5b506101bb6103b0366004611f1a565b6000918252602082815260408084206001600160a01b0393909316845291905290205460ff1690565b3480156103e557600080fd5b5061041a6103f4366004611e7f565b60036020908152600092835260408084209091529082529020546001600160a01b031681565b6040516001600160a01b0390911681526020016101c7565b34801561043e57600080fd5b50610222600081565b34801561045357600080fd5b50610250610462366004611f1a565b610e40565b34801561047357600080fd5b50610250610482366004611e47565b610e65565b34801561049357600080fd5b506102506104a2366004611e47565b610e8f565b3480156104b357600080fd5b506102506104c2366004611fbf565b611243565b3480156104d357600080fd5b506102226104e2366004611f7e565b611408565b3480156104f357600080fd5b50610250610502366004611e47565b61141d565b34801561051357600080fd5b506102227f339759585899103d2ace64958e37e18ccb0504652c81d4a1b8aa80fe2126ab9581565b60006001600160e01b031982167f7965db0b00000000000000000000000000000000000000000000000000000000148061059e57507f01ffc9a7000000000000000000000000000000000000000000000000000000006001600160e01b03198316145b92915050565b600280546105b1906122b0565b80601f01602080910402602001604051908101604052809291908181526020018280546105dd906122b0565b801561062a5780601f106105ff5761010080835404028352916020019161062a565b820191906000526020600020905b81548152906001019060200180831161060d57829003601f168201915b505050505081565b60008281526020819052604090206001015461064d81611434565b610657838361143e565b505050565b6001600160a01b03811633146106df5760405162461bcd60e51b815260206004820152602f60248201527f416363657373436f6e74726f6c3a2063616e206f6e6c792072656e6f756e636560448201527f20726f6c657320666f722073656c66000000000000000000000000000000000060648201526084015b60405180910390fd5b6106e982826114dc565b5050565b3360008181527fa54247010af6b3693b80aceddfad12e077c5de3571e6243fada502635f0d7d39602052604090205460ff1661077c5760405162461bcd60e51b815260206004820152602860248201527f4d61696e7461696e61626c653a2043616c6c6572206973206e6f742061206d6160448201526734b73a30b4b732b960c11b60648201526084016106d6565b6000826001600160a01b031663fc0c546a6040518163ffffffff1660e01b815260040160206040518083038186803b1580156107b757600080fd5b505afa1580156107cb573d6000803e3d6000fd5b505050506040513d601f19601f820116820180604052508101906107ef9190611e63565b90506000836001600160a01b0316635fcbd2856040518163ffffffff1660e01b815260040160206040518083038186803b15801561082c57600080fd5b505afa158015610840573d6000803e3d6000fd5b505050506040513d601f19601f820116820180604052508101906108649190611e63565b6001600160a01b03838116600081815260036020818152604080842087871685528252808420805473ffffffffffffffffffffffffffffffffffffffff1990811690915592825280842085855282528084208054909316909255938916808352600494859052818320839055905163095ea7b360e01b815293840152602483015291925063095ea7b390604401602060405180830381600087803b15801561090b57600080fd5b505af115801561091f573d6000803e3d6000fd5b505050506040513d601f19601f820116820180604052508101906109439190611ee2565b5060405163095ea7b360e01b81526001600160a01b0385811660048301526000602483015282169063095ea7b3906044015b602060405180830381600087803b15801561098f57600080fd5b505af11580156109a3573d6000803e3d6000fd5b505050506040513d601f19601f820116820180604052508101906109c79190611ee2565b5050505050565b3360008181527fa54247010af6b3693b80aceddfad12e077c5de3571e6243fada502635f0d7d39602052604090205460ff16610a5d5760405162461bcd60e51b815260206004820152602860248201527f4d61696e7461696e61626c653a2043616c6c6572206973206e6f742061206d6160448201526734b73a30b4b732b960c11b60648201526084016106d6565b60008211610aad5760405162461bcd60e51b815260206004820152601e60248201527f59616b416461707465723a204e6f7468696e6720746f207265636f766572000060448201526064016106d6565b604051339083156108fc029084906000818181858888f19350505050158015610ada573d6000803e3d6000fd5b506040518281526000907f8c1256b8896378cd5044f80c202f9772b9d77dc85c8a6eb51967210b09bfaa28906020015b60405180910390a25050565b610b407f339759585899103d2ace64958e37e18ccb0504652c81d4a1b8aa80fe2126ab9582610632565b50565b3360008181527fa54247010af6b3693b80aceddfad12e077c5de3571e6243fada502635f0d7d39602052604090205460ff16610bd25760405162461bcd60e51b815260206004820152602860248201527f4d61696e7461696e61626c653a2043616c6c6572206973206e6f742061206d6160448201526734b73a30b4b732b960c11b60648201526084016106d6565b6106576001600160a01b03841683600061155b565b3360008181527fa54247010af6b3693b80aceddfad12e077c5de3571e6243fada502635f0d7d39602052604090205460ff16610c765760405162461bcd60e51b815260206004820152602860248201527f4d61696e7461696e61626c653a2043616c6c6572206973206e6f742061206d6160448201526734b73a30b4b732b960c11b60648201526084016106d6565b81610cc35760405162461bcd60e51b815260206004820152601460248201527f496e76616c6964206761732d657374696d61746500000000000000000000000060448201526064016106d6565b600182905560405182815230907ff43f23b7a28e6f8ce6843a21bd7b48bce778aa913b8c8cf459edf7d770e8d38a90602001610b0a565b3360008181527fa54247010af6b3693b80aceddfad12e077c5de3571e6243fada502635f0d7d39602052604090205460ff16610d895760405162461bcd60e51b815260206004820152602860248201527f4d61696e7461696e61626c653a2043616c6c6572206973206e6f742061206d6160448201526734b73a30b4b732b960c11b60648201526084016106d6565b60008211610dd95760405162461bcd60e51b815260206004820152601e60248201527f59616b416461707465723a204e6f7468696e6720746f207265636f766572000060448201526064016106d6565b610ded6001600160a01b03841633846116e7565b826001600160a01b03167f8c1256b8896378cd5044f80c202f9772b9d77dc85c8a6eb51967210b09bfaa2883604051610e2891815260200190565b60405180910390a2505050565b336106e9828261065c565b600082815260208190526040902060010154610e5b81611434565b61065783836114dc565b610b407f339759585899103d2ace64958e37e18ccb0504652c81d4a1b8aa80fe2126ab9582610e40565b3360008181527fa54247010af6b3693b80aceddfad12e077c5de3571e6243fada502635f0d7d39602052604090205460ff16610f1e5760405162461bcd60e51b815260206004820152602860248201527f4d61696e7461696e61626c653a2043616c6c6572206973206e6f742061206d6160448201526734b73a30b4b732b960c11b60648201526084016106d6565b6000826001600160a01b031663fc0c546a6040518163ffffffff1660e01b815260040160206040518083038186803b158015610f5957600080fd5b505afa158015610f6d573d6000803e3d6000fd5b505050506040513d601f19601f82011682018060405250810190610f919190611e63565b90506000836001600160a01b0316635fcbd2856040518163ffffffff1660e01b815260040160206040518083038186803b158015610fce57600080fd5b505afa158015610fe2573d6000803e3d6000fd5b505050506040513d601f19601f820116820180604052508101906110069190611e63565b6001600160a01b038084166000818152600360208181526040808420868816855282528084208054968c1673ffffffffffffffffffffffffffffffffffffffff199788168117909155928252808420948452938152918390208054909416811790935581517f857749b00000000000000000000000000000000000000000000000000000000081529151939450919263857749b092600480840193919291829003018186803b1580156110b857600080fd5b505afa1580156110cc573d6000803e3d6000fd5b505050506040513d601f19601f820116820180604052508101906110f0919061201d565b826001600160a01b031663313ce5676040518163ffffffff1660e01b815260040160206040518083038186803b15801561112957600080fd5b505afa15801561113d573d6000803e3d6000fd5b505050506040513d601f19601f82011682018060405250810190611161919061201d565b61116b919061224a565b61117690600a612169565b6001600160a01b03858116600081815260046020819052604091829020949094555163095ea7b360e01b815292830152600019602483015283169063095ea7b390604401602060405180830381600087803b1580156111d457600080fd5b505af11580156111e8573d6000803e3d6000fd5b505050506040513d601f19601f8201168201806040525081019061120c9190611ee2565b5060405163095ea7b360e01b81526001600160a01b038581166004830152600019602483015282169063095ea7b390604401610975565b6040516370a0823160e01b81526001600160a01b038281166004830152600091908416906370a082319060240160206040518083038186803b15801561128857600080fd5b505afa15801561129c573d6000803e3d6000fd5b505050506040513d601f19601f820116820180604052508101906112c09190611f66565b90506112cf8686868686611730565b6040516370a0823160e01b81526001600160a01b03838116600483015260009183918616906370a082319060240160206040518083038186803b15801561131557600080fd5b505afa158015611329573d6000803e3d6000fd5b505050506040513d601f19601f8201168201806040525081019061134d9190611f66565b6113579190612233565b9050858110156113a95760405162461bcd60e51b815260206004820152601760248201527f496e73756666696369656e7420616d6f756e742d6f757400000000000000000060448201526064016106d6565b836001600160a01b0316856001600160a01b03167fe2bdbc6b7225eb0a972ac943c485a6cc05f7c6811838bce8903f23200fb744fa89896040516113f7929190918252602082015260400190565b60405180910390a350505050505050565b600061141584848461193f565b949350505050565b33611429600083610632565b6106e960008261065c565b610b4081336119ad565b6000828152602081815260408083206001600160a01b038516845290915290205460ff166106e9576000828152602081815260408083206001600160a01b03851684529091529020805460ff191660011790556114983390565b6001600160a01b0316816001600160a01b0316837f2f8788117e7eff1d82e926ec794901d17c78024a50270940304540a733656f0d60405160405180910390a45050565b6000828152602081815260408083206001600160a01b038516845290915290205460ff16156106e9576000828152602081815260408083206001600160a01b0385168085529252808320805460ff1916905551339285917ff6391f5c32d9c69d2a47ea670b442974b53935d1edc7fd64eb21e047a839171b9190a45050565b8015806115fd57506040517fdd62ed3e0000000000000000000000000000000000000000000000000000000081523060048201526001600160a01b03838116602483015284169063dd62ed3e9060440160206040518083038186803b1580156115c357600080fd5b505afa1580156115d7573d6000803e3d6000fd5b505050506040513d601f19601f820116820180604052508101906115fb9190611f66565b155b61166f5760405162461bcd60e51b815260206004820152603660248201527f5361666545524332303a20617070726f76652066726f6d206e6f6e2d7a65726f60448201527f20746f206e6f6e2d7a65726f20616c6c6f77616e63650000000000000000000060648201526084016106d6565b6040516001600160a01b03831660248201526044810182905261065790849063095ea7b360e01b906064015b60408051601f198184030181529190526020810180517bffffffffffffffffffffffffffffffffffffffffffffffffffffffff166001600160e01b031990931692909217909152611a2b565b6040516001600160a01b0383166024820152604481018290526106579084907fa9059cbb000000000000000000000000000000000000000000000000000000009060640161169b565b6001600160a01b038084166000908152600360209081526040808320868516845282528083205481517ffc0c546a0000000000000000000000000000000000000000000000000000000081529151941693849263fc0c546a9260048082019391829003018186803b1580156117a457600080fd5b505afa1580156117b8573d6000803e3d6000fd5b505050506040513d601f19601f820116820180604052508101906117dc9190611e63565b9050846001600160a01b0316816001600160a01b03161415611899576040517f47e7ef240000000000000000000000000000000000000000000000000000000081526001600160a01b038481166004830152602482018990528316906347e7ef2490604401602060405180830381600087803b15801561185b57600080fd5b505af115801561186f573d6000803e3d6000fd5b505050506040513d601f19601f820116820180604052508101906118939190611f66565b50611936565b6040517f7bde82f2000000000000000000000000000000000000000000000000000000008152600481018890526001600160a01b038481166024830152831690637bde82f290604401602060405180830381600087803b1580156118fc57600080fd5b505af1158015611910573d6000803e3d6000fd5b505050506040513d601f19601f820116820180604052508101906119349190611f66565b505b50505050505050565b6001600160a01b038083166000908152600360209081526040808320858516845290915281205490911680156119a5576001600160a01b038116600090815260046020526040812054906119938783611b6d565b67ffffffffffffffff16919091029250505b509392505050565b6000828152602081815260408083206001600160a01b038516845290915290205460ff166106e9576119e9816001600160a01b03166014611b9c565b6119f4836020611b9c565b604051602001611a0592919061205a565b60408051601f198184030181529082905262461bcd60e51b82526106d6916004016120db565b600080836001600160a01b031683604051611a46919061203e565b6000604051808303816000865af19150503d8060008114611a83576040519150601f19603f3d011682016040523d82523d6000602084013e611a88565b606091505b509150915081611ada5760405162461bcd60e51b815260206004820181905260248201527f5361666545524332303a206c6f772d6c6576656c2063616c6c206661696c656460448201526064016106d6565b805115611b675780806020019051810190611af59190611ee2565b611b675760405162461bcd60e51b815260206004820152602a60248201527f5361666545524332303a204552433230206f7065726174696f6e20646964206e60448201527f6f7420737563636565640000000000000000000000000000000000000000000060648201526084016106d6565b50505050565b6000611b95828481611b8f57634e487b7160e01b600052601260045260246000fd5b04611dc3565b9392505050565b60606000611bab836002612214565b611bb690600261210e565b67ffffffffffffffff811115611bdc57634e487b7160e01b600052604160045260246000fd5b6040519080825280601f01601f191660200182016040528015611c06576020820181803683370190505b5090507f300000000000000000000000000000000000000000000000000000000000000081600081518110611c4b57634e487b7160e01b600052603260045260246000fd5b60200101906001600160f81b031916908160001a9053507f780000000000000000000000000000000000000000000000000000000000000081600181518110611ca457634e487b7160e01b600052603260045260246000fd5b60200101906001600160f81b031916908160001a9053506000611cc8846002612214565b611cd390600161210e565b90505b6001811115611d74577f303132333435363738396162636465660000000000000000000000000000000085600f1660108110611d2257634e487b7160e01b600052603260045260246000fd5b1a60f81b828281518110611d4657634e487b7160e01b600052603260045260246000fd5b60200101906001600160f81b031916908160001a90535060049490941c93611d6d81612299565b9050611cd6565b508315611b955760405162461bcd60e51b815260206004820181905260248201527f537472696e67733a20686578206c656e67746820696e73756666696369656e7460448201526064016106d6565b600067ffffffffffffffff821115611e435760405162461bcd60e51b815260206004820152602660248201527f53616665436173743a2076616c756520646f65736e27742066697420696e203660448201527f342062697473000000000000000000000000000000000000000000000000000060648201526084016106d6565b5090565b600060208284031215611e58578081fd5b8135611b9581612301565b600060208284031215611e74578081fd5b8151611b9581612301565b60008060408385031215611e91578081fd5b8235611e9c81612301565b91506020830135611eac81612301565b809150509250929050565b60008060408385031215611ec9578182fd5b8235611ed481612301565b946020939093013593505050565b600060208284031215611ef3578081fd5b81518015158114611b95578182fd5b600060208284031215611f13578081fd5b5035919050565b60008060408385031215611f2c578182fd5b823591506020830135611eac81612301565b600060208284031215611f4f578081fd5b81356001600160e01b031981168114611b95578182fd5b600060208284031215611f77578081fd5b5051919050565b600080600060608486031215611f92578081fd5b833592506020840135611fa481612301565b91506040840135611fb481612301565b809150509250925092565b600080600080600060a08688031215611fd6578081fd5b85359450602086013593506040860135611fef81612301565b92506060860135611fff81612301565b9150608086013561200f81612301565b809150509295509295909350565b60006020828403121561202e578081fd5b815160ff81168114611b95578182fd5b6000825161205081846020870161226d565b9190910192915050565b7f416363657373436f6e74726f6c3a206163636f756e742000000000000000000081526000835161209281601785016020880161226d565b7f206973206d697373696e6720726f6c652000000000000000000000000000000060179184019182015283516120cf81602884016020880161226d565b01602801949350505050565b60208152600082518060208401526120fa81604085016020870161226d565b601f01601f19169190910160400192915050565b60008219821115612121576121216122eb565b500190565b600181815b80851115612161578160001904821115612147576121476122eb565b8085161561215457918102915b93841c939080029061212b565b509250929050565b6000611b9560ff8416836000826121825750600161059e565b8161218f5750600061059e565b81600181146121a557600281146121af576121cb565b600191505061059e565b60ff8411156121c0576121c06122eb565b50506001821b61059e565b5060208310610133831016604e8410600b84101617156121ee575081810a61059e565b6121f88383612126565b806000190482111561220c5761220c6122eb565b029392505050565b600081600019048311821515161561222e5761222e6122eb565b500290565b600082821015612245576122456122eb565b500390565b600060ff821660ff841680821015612264576122646122eb565b90039392505050565b60005b83811015612288578181015183820152602001612270565b83811115611b675750506000910152565b6000816122a8576122a86122eb565b506000190190565b600181811c908216806122c457607f821691505b602082108114156122e557634e487b7160e01b600052602260045260246000fd5b50919050565b634e487b7160e01b600052601160045260246000fd5b6001600160a01b0381168114610b4057600080fdfea264697066735822122062b296390c370316c797262f3f9d0af3dce85d7577ba2fdf21c3e56a4b6ca37864736f6c63430008040033",
  "devdoc": {
    "kind": "dev",
    "methods": {
      "getRoleAdmin(bytes32)": {
        "details": "Returns the admin role that controls `role`. See {grantRole} and {revokeRole}. To change a role's admin, use {_setRoleAdmin}."
      },
      "grantRole(bytes32,address)": {
        "details": "Grants `role` to `account`. If `account` had not been already granted `role`, emits a {RoleGranted} event. Requirements: - the caller must have ``role``'s admin role. May emit a {RoleGranted} event."
      },
      "hasRole(bytes32,address)": {
        "details": "Returns `true` if `account` has been granted `role`."
      },
      "renounceRole(bytes32,address)": {
        "details": "Revokes `role` from the calling account. Roles are often managed via {grantRole} and {revokeRole}: this function's purpose is to provide a mechanism for accounts to lose their privileges if they are compromised (such as when a trusted device is misplaced). If the calling account had been revoked `role`, emits a {RoleRevoked} event. Requirements: - the caller must be `account`. May emit a {RoleRevoked} event."
      },
      "revokeRole(bytes32,address)": {
        "details": "Revokes `role` from `account`. If `account` had been granted `role`, emits a {RoleRevoked} event. Requirements: - the caller must have ``role``'s admin role. May emit a {RoleRevoked} event."
      },
      "supportsInterface(bytes4)": {
        "details": "See {IERC165-supportsInterface}."
      }
    },
    "version": 1
  },
  "userdoc": {
    "kind": "user",
    "methods": {},
    "version": 1
  },
  "storageLayout": {
    "storage": [
      {
        "astId": 24,
        "contract": "src/contracts/adapters/StargateAdapter.sol:StargateAdapter",
        "label": "_roles",
        "offset": 0,
        "slot": "0",
        "type": "t_mapping(t_bytes32,t_struct(RoleData)19_storage)"
      },
      {
        "astId": 718,
        "contract": "src/contracts/adapters/StargateAdapter.sol:StargateAdapter",
        "label": "swapGasEstimate",
        "offset": 0,
        "slot": "1",
        "type": "t_uint256"
      },
      {
        "astId": 720,
        "contract": "src/contracts/adapters/StargateAdapter.sol:StargateAdapter",
        "label": "name",
        "offset": 0,
        "slot": "2",
        "type": "t_string_storage"
      },
      {
        "astId": 1006,
        "contract": "src/contracts/adapters/StargateAdapter.sol:StargateAdapter",
        "label": "tokensToPool",
        "offset": 0,
        "slot": "3",
        "type": "t_mapping(t_address,t_mapping(t_address,t_address))"
      },
      {
        "astId": 1010,
        "contract": "src/contracts/adapters/StargateAdapter.sol:StargateAdapter",
        "label": "poolToConvertRate",
        "offset": 0,
        "slot": "4",
        "type": "t_mapping(t_address,t_uint256)"
      }
    ],
    "types": {
      "t_address": {
        "encoding": "inplace",
        "label": "address",
        "numberOfBytes": "20"
      },
      "t_bool": {
        "encoding": "inplace",
        "label": "bool",
        "numberOfBytes": "1"
      },
      "t_bytes32": {
        "encoding": "inplace",
        "label": "bytes32",
        "numberOfBytes": "32"
      },
      "t_mapping(t_address,t_address)": {
        "encoding": "mapping",
        "key": "t_address",
        "label": "mapping(address => address)",
        "numberOfBytes": "32",
        "value": "t_address"
      },
      "t_mapping(t_address,t_bool)": {
        "encoding": "mapping",
        "key": "t_address",
        "label": "mapping(address => bool)",
        "numberOfBytes": "32",
        "value": "t_bool"
      },
      "t_mapping(t_address,t_mapping(t_address,t_address))": {
        "encoding": "mapping",
        "key": "t_address",
        "label": "mapping(address => mapping(address => address))",
        "numberOfBytes": "32",
        "value": "t_mapping(t_address,t_address)"
      },
      "t_mapping(t_address,t_uint256)": {
        "encoding": "mapping",
        "key": "t_address",
        "label": "mapping(address => uint256)",
        "numberOfBytes": "32",
        "value": "t_uint256"
      },
      "t_mapping(t_bytes32,t_struct(RoleData)19_storage)": {
        "encoding": "mapping",
        "key": "t_bytes32",
        "label": "mapping(bytes32 => struct AccessControl.RoleData)",
        "numberOfBytes": "32",
        "value": "t_struct(RoleData)19_storage"
      },
      "t_string_storage": {
        "encoding": "bytes",
        "label": "string",
        "numberOfBytes": "32"
      },
      "t_struct(RoleData)19_storage": {
        "encoding": "inplace",
        "label": "struct AccessControl.RoleData",
        "members": [
          {
            "astId": 16,
            "contract": "src/contracts/adapters/StargateAdapter.sol:StargateAdapter",
            "label": "members",
            "offset": 0,
            "slot": "0",
            "type": "t_mapping(t_address,t_bool)"
          },
          {
            "astId": 18,
            "contract": "src/contracts/adapters/StargateAdapter.sol:StargateAdapter",
            "label": "adminRole",
            "offset": 0,
            "slot": "1",
            "type": "t_bytes32"
          }
        ],
        "numberOfBytes": "64"
      },
      "t_uint256": {
        "encoding": "inplace",
        "label": "uint256",
        "numberOfBytes": "32"
      }
    }
  }
}